:100000000C9463000C948B000C948B000C948B006C
:100010000C948B000C948B000C948B000C948B0034
:100020000C948B000C948B000C948B000C948B0024
:100030000C948B000C948B000C948B000C948B0014
:100040000C94B5040C948B000C9486020C948B00D9
:100050000C948B000C948B000C948B000C948B00F4
:100060000C948B000C948B000000000024002700EF
:100070002A0000000000250028002B0000000000DE
:1000800023002600290004040404040404040202DA
:100090000202020203030303030301020408102007
:1000A0004080010204081020010204081020000012
:1000B0000007000201000003040600000000000029
:1000C0000000A5017B0311241FBECFEFD4E0DEBFEB
:1000D000CDBF11E0A0E0B1E0EAE7FDE002C005908D
:1000E0000D92AA31B107D9F712E0AAE1B1E001C03F
:1000F0001D92AD30B107E1F710E0C6ECD0E004C0CE
:100100002297FE010E94B706C23CD107C9F70E94A0
:10011000D8010C94BB060C940000FC018827992799
:10012000E89421912032E9F3293010F02E30C8F301
:100130002B3241F02D3239F4689404C00E94E6005D
:10014000820F911D219120532A30C0F31EF4909507
:1001500081959F4F0895FB01DC018D9101908019DD
:100160000110D9F3990B0895009731F4DA018D91BC
:100170009C91009709F40EC0DC01FB013D91219197
:10018000222319F03217C9F3FACF332331F4DA01FD
:100190001D921C928827992708951197AF93BF93BA
:1001A000FB013D912191321771F4332321F488270B
:1001B0009927119702C01E921196FA01A193B0835C
:1001C0009F918F910895222369F7EACF7AE0979F54
:1001D000902D879F802D910D11240895FC0112828E
:1001E000118280E287831086E55BFF4F80E4819374
:1001F0008FE38083EC54F0401286108214821382C5
:100200001682158281E081870895FC0172836183E3
:100210000895CF93DF93EC0118821616170684F524
:100220006A30710569F16D30710521F06115710554
:1002300039F110C08A85FE01E80FF11D13861A8678
:100240001E821D8281E089878883CE010B969C8364
:100250008B8316C08A85FE01E80FF11D63878F5FCF
:100260008A87C45BDF4F9881CC54D040891740F017
:100270001A8618821C821B821E821D8281E0898759
:100280008881813029F4E981FA81309709F0099554
:100290008881DF91CF910895CF93DF93EC0188811E
:1002A0008823F9F0813019F020E030E005C09E018C
:1002B000255F3F4F82E088838985882359F0BE01FE
:1002C000695F7F4FAE014B5F5F4FC9010E94B40071
:1002D0009C838B838B819C81892B19F0198681E00B
:1002E00001C080E0DF91CF9108950F931F93CF93CA
:1002F000DF93EC018B010E944C01882351F06B814C
:100300007C81C8010E94AB00009721F481E08987BD
:1003100002C001C080E0DF91CF911F910F9108953D
:10032000CF93DF93EC010E944C01882319F420E065
:1003300030E007C081E089878B819C810E948D001D
:100340009C01C901DF91CF9108958AE191E00E945B
:10035000EE00089509C08FEE91E00E944003BC01B9
:100360008AE191E00E9409018FEE91E00E942C0346
:10037000882389F708951F9313E0812F61E00E947D
:10038000E405812F60E00E9404061F5F1E30A9F77C
:100390008FEE91E040E052EC61E070E00E94C30219
:1003A0008AE191E06FED71E00E9405011F910895CF
:1003B0000E9433050E94BB010E94AA01FDCF1F933A
:1003C000CF93DF938AE191E060E071E00E947501D4
:1003D000882309F464C08AE191E062E071E00E9440
:1003E0007501882309F48EC08AE191E00E94900192
:1003F000EC010E9425052091670130916801409130
:10040000690150916A01621B730B840B950B20915B
:100410000D0130910E0140910F01509110012617EE
:1004200037074807590728F7809111018823A1F55C
:100430000E942505609367017093680180936901AC
:1004400090936A018FEE91E064E071E00E94B20344
:10045000AE01662757FD6095762F8FEE91E02AE07A
:1004600030E00E94A0048FEE91E067E071E00E940E
:10047000B2038C2F0E946D05AC01662757FD609575
:10048000762F8FEE91E02AE030E00E94A0048FEEFC
:1004900091E00E94CA0336C010921101AACF8AE1EE
:1004A00091E069E071E00E947501882359F18AE1C9
:1004B00091E062E071E00E947501882371F08AE1A9
:1004C00091E00E949001182F8AE191E00E94900132
:1004D000BC01812F0E948B0515C08AE191E06BE081
:1004E00071E00E947501882369F08AE191E00E9421
:1004F0009001182F8AE191E00E949001682F812FCE
:100500000E940406DF91CF911F9108951F920F92D0
:100510000FB60F9211242F933F934F935F936F93D6
:100520007F938F939F93AF93BF93EF93FF934091EC
:10053000C600E091EB01F091EC01CF01019660E87B
:1005400070E00E9451069C018091ED019091EE01B6
:100550002817390739F0E559FE4F40833093EC01F5
:100560002093EB01FF91EF91BF91AF919F918F91FC
:100570007F916F915F914F913F912F910F900FBE9F
:100580000F901F901895AF92BF92CF92DF92EF928B
:10059000FF920F931F93CF93DF936C017A018B012E
:1005A000DC011496AD90BC901597CB01BA0122E006
:1005B00030E040E050E00E948606205C3D4B404F1A
:1005C0005F4FCA01B901A80197010E948606C901BF
:1005D000DA010197A109B109292F3A2F4B2F55278D
:1005E00047FD5A950196A11DB11DE5012883E6013D
:1005F000EE81FF8181508083EA85FB85208141E087
:1006000050E0CA010E8402C0880F991F0A94E2F7D5
:10061000282B2083EA85FB852081CA010F8402C034
:10062000880F991F0A94E2F7282B2083EA85FB851F
:100630008081088802C0440F551F0A94E2F7842B7A
:100640008083DF91CF911F910F91FF90EF90DF900A
:10065000CF90BF90AF900895DC011296ED91FC9180
:100660001397E058FF4F8191919180589F4F2081BF
:100670003181821B930B60E870E00E94510608955F
:10068000CF93DF93DC011296ED91FC911397EF016C
:10069000CE57DF4F48815981E058FF4F80819181CB
:1006A000E058F0408417950719F42FEF3FEF0CC086
:1006B000E40FF51F2081CA01019660E870E00E94F6
:1006C00051069983888330E0C901DF91CF91089565
:1006D000FC01A085B18521898C9190E0022E02C099
:1006E000959587950A94E2F780FFF6CF0484F58507
:1006F000E02D6083089587E191E09093F00180936D
:10070000EF018BE691E09093F2018093F10185EC8B
:1007100090E09093F4018093F30184EC90E0909347
:10072000F6018093F50180EC90E09093F8018093BE
:10073000F70181EC90E09093FA018093F90186EC47
:1007400090E09093FC018093FB0184E08093FD0195
:1007500083E08093FE0187E08093FF0185E0809332
:10076000000208950F931F93CF93DF938C01EB0149
:1007700009C02196D801ED91FC910190F081E02D06
:10078000C801099568816623A1F7DF91CF911F9178
:100790000F9108950F931F938C01DC01ED91FC9153
:1007A0000190F081E02D6DE00995D801ED91FC916B
:1007B0000190F081E02DC8016AE009951F910F9129
:1007C00008952F923F924F925F926F927F928F92F5
:1007D0009F92AF92BF92CF92DF92EF92FF920F93D0
:1007E0001F93DF93CF93CDB7DEB7A0970FB6F894E2
:1007F000DEBF0FBECDBF1C016A017B014115510553
:100800006105710549F4DC01ED91FC910190F081E5
:10081000E02D60E3099554C0882499245401422EA8
:1008200055246624772401E010E00C0F1D1F080DED
:10083000191DC701B601A30192010E946406F801C7
:1008400060830894811C911CA11CB11CC701B601D6
:10085000A30192010E946406C901DA016C017D01C5
:10086000C114D104E104F104F1F681E0E82EF12C89
:10087000EC0EFD1EE80CF91C3E010894611C711C75
:10088000D501C4010197A109B1096C01C818D908A3
:1008900014C0F601EE0DFF1D60816A3010F4605D3A
:1008A00001C0695CD101ED91FC910190F081E02DD6
:1008B000C10109950894E108F1086E147F0449F715
:1008C000A0960FB6F894DEBF0FBECDBFCF91DF91DB
:1008D0001F910F91FF90EF90DF90CF90BF90AF905E
:1008E0009F908F907F906F905F904F903F902F9050
:1008F0000895EF92FF920F931F93CF93DF93EC0134
:100900007A018B0177FF0FC0E881F9810190F081B6
:10091000E02D6DE2099510950095F094E094E11CAE
:10092000F11C011D111DCE01B801A7012AE00E9492
:10093000E103DF91CF911F910F91FF90EF90089508
:10094000DC012115310541F4ED91FC910190F0811C
:10095000E02D642F099508952A30310519F40E947D
:10096000790408950E94E10308951F920F920FB633
:100970000F9211242F938F939F93AF93BF938091E6
:10098000010290910202A0910302B091040201962B
:10099000A11DB11D8093010290930202A093030256
:1009A000B09304028091050290910602A091070283
:1009B000B09108028050904CAF4FBF4F809305021A
:1009C00090930602A0930702B093080227C080917B
:1009D000050290910602A0910702B091080280588A
:1009E0009E43A040B0408093050290930602A093DE
:1009F0000702B09308028091090290910A02A09127
:100A00000B02B0910C020196A11DB11D8093090249
:100A100090930A02A0930B02B0930C0280910502FE
:100A200090910602A0910702B091080281589E435E
:100A3000A040B04060F6BF91AF919F918F912F91F0
:100A40000F900FBE0F901F9018958FB7F8942091BC
:100A5000090230910A0240910B0250910C028FBFA3
:100A6000B901CA010895789484B5826084BD84B5C3
:100A7000816084BD85B5826085BD85B5816085BD99
:100A8000EEE6F0E0808181608083E1E8F0E0808143
:100A900082608083808181608083E0E8F0E08081F3
:100AA00081608083E1EBF0E0808184608083E0EB13
:100AB000F0E0808181608083EAE7F0E080818460FB
:100AC0008083808182608083808181608083808157
:100AD000806880831092C100089587709091120100
:100AE0009295990F990F907C982B90937C00809110
:100AF0007A00806480937A0080917A0086FDFCCF32
:100B00002091780040917900942F80E030E0282BEC
:100B1000392BC90108951F93CF93DF93182FEB0151
:100B200061E00E94E405E12FF0E0E255FF4F84917F
:100B3000833051F480918000806880938000D0934E
:100B40008900C09388003CC0843051F480918000BB
:100B5000806280938000D0938B00C0938A0030C065
:100B6000813039F4209729F184B5806884BDC7BDF0
:100B700027C0823039F42097E1F084B5806284BDCB
:100B8000C8BD1EC0863041F48091B000806880935B
:100B9000B000C093B30014C0873041F48091B0001E
:100BA00080628093B000C093B4000AC0C038D10501
:100BB0001CF4812F60E002C0812F61E00E940406D6
:100BC000DF91CF911F910895282F30E0C9018656FB
:100BD0009F4FFC0194912A573F4FF901849188233C
:100BE00091F0E82FF0E0EE0FFF1FE859FF4FA591BD
:100BF000B491662329F48C91909589238C93089560
:100C00008C91892B8C930895482F50E0CA0182550E
:100C10009F4FFC012491CA0186569F4FFC0194917D
:100C20004A575F4FFA0134913323D1F1222331F136
:100C3000233021F4809180008F7705C0243031F477
:100C4000809180008F7D8093800018C0213019F43E
:100C500084B58F7704C0223021F484B58F7D84BDA4
:100C60000DC0263021F48091B0008F7705C0273069
:100C700029F48091B0008F7D8093B000E32FF0E0E5
:100C8000EE0FFF1FEE58FF4FA591B491662329F494
:100C90008C91909589238C9308958C91892B8C93BA
:100CA000089597FB092E07260AD077FD04D049D076
:100CB00006D000201AF4709561957F4F0895F6F7DD
:100CC000909581959F4F0895A1E21A2EAA1BBB1BF8
:100CD000FD010DC0AA1FBB1FEE1FFF1FA217B30708
:100CE000E407F50720F0A21BB30BE40BF50B661F1E
:100CF000771F881F991F1A9469F7609570958095E2
:100D000090959B01AC01BD01CF01089597FB092E81
:100D100005260ED057FD04D0D7DF0AD0001C38F4CA
:100D200050954095309521953F4F4F4F5F4F089517
:100D3000F6F790958095709561957F4F8F4F9F4FF7
:100D40000895AA1BBB1B51E107C0AA1FBB1FA61712
:100D5000B70710F0A61BB70B881F991F5A95A9F764
:100D600080959095BC01CD010895EE0FFF1F059071
:0A0D7000F491E02D0994F894FFCFF0
:100D7A00720061006120002000770064008813007F
:0A0D8A0000010100000000680300F2
:00000001FF
